:020000040800F2
:100000008806002099010008A1010008A30100084A
:10001000A5010008A7010008A901000800000000D0
:10002000000000000000000000000000AB0100081C
:10003000AD01000800000000AF010008B101000898
:10004000B3010008B3010008B3010008B3010008C0
:10005000B3010008B3010008B3010008B3010008B0
:10006000B3010008B3010008B3010008B3010008A0
:10007000B3010008B3010008B3010008B301000890
:10008000B3010008B3010008B3010008B301000880
:10009000B3010008B3010008B3010008B301000870
:1000A000B3010008B3010008B3010008B301000860
:1000B000B3010008B3010008B3010008B301000850
:1000C000B3010008B3010008B3010008B301000840
:1000D000B3010008AD080008B3010008B30100082F
:1000E000B3010008B3010008B301000800F002F8F2
:1000F00000F042F814A696E8000CB244B344DA4586
:1001000001D100F039F8BAE80F000FA696E83000E8
:10011000A5EB040504EB0607AAEB0704A7F101070A
:100120004FEA15154FEA3414A4F10104AC4201D38F
:1001300000F022F813F0010F18BFFB1A43F001037F
:1001400000F001F8DBE71847440D0000540D0000F3
:10015000704700000023002400250026103A28BF25
:1001600078C1FBD8520728BF30C148BF0B60704729
:100170001FB51FBD10B510BD00F071F81146FFF797
:10018000F7FF00F0E7FD00F08FF803B4FFF7F2FF90
:1001900003BC00F097F80000094880470948004771
:1001A000FEE7FEE7FEE7FEE7FEE7FEE7FEE7FEE727
:1001B000FEE7FEE704480549054A064B7047000084
:1001C00045080008ED00000888000020880600208F
:1001D00088020020880200204FF0013C50F8042BD8
:1001E00051F8043B9A4221D1A2EB0C03934313EA4A
:1001F000CC1317D150F8042B51F8043B9A4215D177
:10020000A2EB0C03934313EACC130BD150F8042B4D
:1002100051F8043B9A4209D1A2EB0C03934313EA31
:10022000CC13DBD04FF00000704700BFD01A01BAEA
:10023000B1FA81F101F0180122FA01F0CB40DBB2F2
:10024000C0B2C01AC1F120012CFA01F3D11A9143B6
:1002500011EAC311E6D17047704770477047754681
:1002600000F02CF8AE4605006946534620F0070022
:10027000854618B020B5FFF79DFFBDE820404FF040
:1002800000064FF000074FF000084FF0000BAC469F
:10029000ACE8C009ACE8C009ACE8C009ACE8C009EA
:1002A00021F007018D46704710B50446AFF300807A
:1002B0002046BDE81040FFF768BF000000487047C7
:1002C0000000002001491820ABBEFEE72600020016
:1002D0007047000080B584B010200090012100F02C
:1002E00045F900984FF400510291ADF80C108DF8CB
:1002F0000F0002208DF80E0041F20000C4F2010050
:10030000019003A900F006F80198029900F0D0F8D6
:1003100004B080BD88B0079006910020059004903D
:1003200003900290019000900698C07800F00F00B2
:1003300005900698C078C006002806D5FFE7069805
:100340008178059808430590FFE706980078002813
:100350004BD0FFE707980068019000200390FFE76B
:10036000039807283DD8FFE70399012088400290B1
:1003700006980088029908400490049802998842DF
:100380002AD1FFE703988000029002990F2088404D
:10039000009000990198884301900598029900FA0D
:1003A00001F10198084301900698C078282806D1E9
:1003B000FFE7039901208840079948610BE0069800
:1003C000C078482806D1FFE70399012088400799A3
:1003D0000861FFE7FFE7FFE7FFE7039801300390BD
:1003E000BEE7019807990860FFE706980088B0F516
:1003F000807F50DBFFE70798406801900020039062
:10040000FFE70398072842D8FFE7039800F10801A7
:1004100001208840029006980088029908400490C4
:100420000498029988422DD1FFE70398800002903A
:1004300002990F208840009000990198884301900C
:100440000598029900FA01F1019808430190069875
:10045000C078282808D1FFE7039800F1080101209F
:10046000884007994861FFE70698C078482808D176
:10047000FFE7039800F1080101208840079908610F
:10048000FFE7FFE7FFE7039801300390B9E7019822
:1004900007994860FFE708B07047000082B00190FC
:1004A000ADF80210BDF802000199486102B0704732
:1004B00082B00190ADF80210BDF802000199086108
:1004C00002B0704784B003900020029001900F208A
:1004D00000900398C078B8B3FFE74EF60C50CEF208
:1004E00000000068C043C0F3022002900298C0F1EF
:1004F0000400019000980299C84000900398407849
:1005000001998840029003988078009901400298F0
:10051000084302900298000102900298039909781A
:100520004EF20042CEF2000288540398027802F0A4
:100530001F01012088401C2101EAD2014EF2001265
:10054000CEF2000288500EE00398027802F01F01FC
:10055000012088401C2101EAD2014EF28012CEF225
:1005600000028850FFE704B07047000082B001909D
:100570008DF803109DF8030048B1FFE7019A41F29E
:100580001801C4F2020108681043086008E0019AEB
:1005900041F21801C4F20201086890430860FFE7C5
:1005A00002B0704786B0059000200490039002903E
:1005B000019041F20400C4F20200006800F00C0057
:1005C00004900498009040B1FFE7009804280BD0F5
:1005D000FFE7009808280ED047E0059941F2002077
:1005E000C0F27A00086047E0059941F20020C0F2AD
:1005F0007A00086040E041F20400C4F202000168A1
:1006000001F470110391006800F4803002900399A6
:10061000022000EB91400390029848B9FFE703984D
:1006200040F60011C0F23D014843059908601BE007
:1006300041F20400C4F2020000688003002809D5DA
:10064000FFE7039840F60011C0F23D0148430599C9
:10065000086008E0039841F20021C0F27A014843A3
:1006600005990860FFE7FFE706E0059941F20020E1
:10067000C0F27A000860FFE741F20400C4F2020011
:10068000016801F0F0010491049909090491049AA8
:1006900040F63A61C0F600018A5C0192059B1A6837
:1006A000DDF804C022FA0CF25A60026802F4E0623B
:1006B0000492049A120A0492049A8A5C0192059B9D
:1006C0005A68DDF804C022FA0CF29A60026802F45B
:1006D00060520492049AD20A0492049A895C0191AD
:1006E000059A5168019BD940D160006800F44040F0
:1006F00004900498800B0490049940F63660C0F68C
:100700000000405C01900599C868019AB0FBF2F0C6
:10071000086106B07047000080B500F001F880BDA8
:1007200084B000200390029041F20001C4F2020163
:10073000086840F480300860FFE741F20000C4F22E
:100740000200006800F4003002900398013003902A
:10075000FFE702990020019039B9FFE70398B0F54F
:10076000A06018BF01200190FFE70198C007002892
:10077000E3D1FFE741F20000C4F202000068800309
:10078000002803D5FFE70120029002E0002002903C
:10079000FFE70298012851D1FFE742F20001C4F2BD
:1007A0000201086840F010000860086820F00700A7
:1007B0000860086840F00200086041F20401C4F2D9
:1007C000020100910868086008680860086840F441
:1007D00080600860086820F47C100860086840F4B5
:1007E000E810086041F20001C4F20201086840F01C
:1007F00080700860FFE741F20000C4F20200006868
:100800008001002801D4FFE7F5E741F20401C4F2BA
:100810000201086820F003000860086840F0020048
:100820000860FFE741F20400C4F20200006800F033
:100830000C00082801D0FFE7F4E700E0FFE704B070
:100840007047000080B541F20002C4F20202106855
:1008500040F00100106041F20401C4F20201086896
:100860000023CFF6FF031840086010684FF6FF73AF
:10087000CFF6F66318401060106820F480201060F6
:10088000086820F4FE00086041F20801C4F2020189
:100890004FF41F000860FFF73FFF4EF60851CEF2FD
:1008A00000014FF00060086080BD000080B582B09C
:1008B00043F60000C4F2010040F2255100F0C6F8F2
:1008C00090B3FFE743F60000C4F2010000F00EFA17
:1008D0008DF807009DF807000D2805D0FFE79DF86B
:1008E00007000A2807D1FFE740F26001C2F20001C9
:1008F0000120087017E040F28100C2F20000007889
:100900001E280FD8FFE79DF8070040F28103C2F2CE
:1009100000031A78511C197040F26101C2F2000103
:100920008854FFE7FFE7FFE702B080BD82B0019087
:100930008DF803109DF8030030B1FFE70199888915
:1009400040F40050888105E00199888920F4005026
:100950008881FFE702B0704780B58CB044F2040094
:1009600001210591FFF702FE4FF40070ADF82C0055
:1009700018208DF82F0003208DF82E0040F600007F
:10098000C4F2010001900BA90291FFF7C3FC01988A
:1009900002994FF48062ADF82C2004228DF82F20AC
:1009A000FFF7B8FC4FF41650079000200490ADF804
:1009B0002000ADF82200ADF82400ADF828000C208E
:1009C000ADF8260043F60000C4F20100039007A929
:1009D00000F0DEF803980599FFF7A8FF0398059A41
:1009E00040F2255100F08AF80499059825228DF8E7
:1009F00018208DF819108DF81A108DF81B0006A814
:100A0000FFF760FD0CB080BD82B00190ADF8021020
:100A100000208DF80100BDF80200B0F5007F01D183
:100A2000FFE7FFE701980088BDF8021008400004C6
:100A300020B1FFE701208DF8010003E000208DF8D0
:100A40000100FFE79DF8010002B0704786B00590F5
:100A5000ADF8121000200390029001908DF8030071
:100A6000BDF8120040F66A11884201D1FFE7FFE7A6
:100A70009DF8120040090190BDF8120000F01F001F
:100A8000029002990120884002900198012806D125
:100A9000FFE70598818902980840029010E00198CC
:100AA000022806D1FFE70598018A029808400290C3
:100AB00005E00598818A029808400290FFE7FFE769
:100AC0009DF8130003900399012088400390059836
:100AD0000188039808400390029838B1FFE7039813
:100AE00020B1FFE701208DF8030003E000208DF81E
:100AF0000300FFE79DF8030006B0704786B005903D
:100B0000ADF812108DF81120002003900290019092
:100B10000090BDF8120040F66A11884201D1FFE74B
:100B2000FFE7059800909DF8120040090390BDF87A
:100B3000120000F01F0002900299012088400190ED
:100B40000398012804D1FFE700980C3000900CE0D6
:100B50000398022804D1FFE700981030009003E0CA
:100B6000009814300090FFE7FFE79DF8110030B1C6
:100B7000FFE7019A009908681043086005E0019AB0
:100B80000099086890430860FFE706B070470000CE
:100B900080B58CB00B900A910020099008900790C6
:100BA000069005900A98808908B1FFE7FFE70B9847
:100BB00005900B98008A099009984CF6FF7108403F
:100BC00009900A98C18809980843099009980B99D7
:100BD00008820B988089099009984EF6F311084015
:100BE00009900A9988880A8910434989014309981C
:100BF0000843099009980B9988810B98808A09907D
:100C000009984FF6FF41084009900A988189099890
:100C10000843099009980B9988826846FFF7C2FC3F
:100C2000059843F60001C4F20101884203D1FFE7B1
:100C30000398089002E002980890FFE70B988089DB
:100C4000000400280AD5FFE70898192148430A99AB
:100C500009684900B0FBF1F0079009E008981921F4
:100C600048430A9909688900B0FBF1F00790FFE753
:100C7000079848F21F51C5F2EB11A0FB01016FF07C
:100C80000F0000EA51000990079A099800096421B1
:100C900000FB112006900B9880890004002810D5D5
:100CA000FFE70699322000EBC10048F21F51C5F260
:100CB000EB11A0FB0110C0F3421109980843099001
:100CC0000FE00699322000EB011048F21F51C5F2E7
:100CD000EB11A0FB0110C0F34311099808430990E0
:100CE000FFE709980B9908810CB080BD81B0009096
:100CF000009880886FF35F2001B0704782B0019048
:100D0000ADF80210BDF802006FF35F2001998880F2
:100D100002B0704780B582B00190FFE7019800787B
:100D2000B0B1FFE7FFE743F60000C4F20100802105
:100D3000FFF76AFE08B9FFE7F5E70198411C01914A
:100D4000017843F60000C4F20100FFF7D7FFE5E7A2
:100D500002B080BD80B584B000200390FFF7BAFADE
:100D6000FFF7FAFD40F64A60C0F60000FFF7D2FF39
:100D7000FFE740F26000C2F200000078002859D07E
:100D8000FFE740F26001C2F200010020087040F26B
:100D90006100C2F2000040F68761C0F60001FFF773
:100DA0001BFA78B9FFE741F20000C4F201004FF4EA
:100DB0000051FFF773FB40F66860C0F60000FFF7D4
:100DC000A9FF22E040F26100C2F2000040F6836118
:100DD000C0F60001FFF700FA78B9FFE741F2000022
:100DE000C4F201004FF40051FFF762FB40F65E6071
:100DF000C0F60000FFF78EFF06E040F67160C0F617
:100E00000000FFF787FFFFE7FFE740F28101C2F232
:100E1000000100200190087040F26101C2F200015F
:100E20000291C861886148610861C8608860486053
:100E30000860FFE79DE702040608000000000102C9
:100E40000304010203040607080948656C6C6F205F
:100E500066726F6D2053544D3332210D0A004C459C
:100E600044204F46460D0A004C4544204F4E0D0A83
:100E700000556E6B6E6F776E20636F6D6D616E6483
:100E80000D0A004F4646004F4E0000009C0E000821
:0C0E90000000002088060000540100084B
:04000005080000ED02
:00000001FF
